{
  "contractName": "Voting",
  "abi": [
    {
      "anonymous": false,
      "inputs": [
        {
          "indexed": true,
          "internalType": "address",
          "name": "previousOwner",
          "type": "address"
        },
        {
          "indexed": true,
          "internalType": "address",
          "name": "newOwner",
          "type": "address"
        }
      ],
      "name": "OwnershipTransferred",
      "type": "event"
    },
    {
      "anonymous": false,
      "inputs": [
        {
          "indexed": false,
          "internalType": "uint256",
          "name": "proposalId",
          "type": "uint256"
        }
      ],
      "name": "ProposalRegistered",
      "type": "event"
    },
    {
      "anonymous": false,
      "inputs": [
        {
          "indexed": false,
          "internalType": "address",
          "name": "voter",
          "type": "address"
        },
        {
          "indexed": false,
          "internalType": "uint256",
          "name": "proposalId",
          "type": "uint256"
        }
      ],
      "name": "Voted",
      "type": "event"
    },
    {
      "anonymous": false,
      "inputs": [
        {
          "indexed": false,
          "internalType": "address",
          "name": "voterAddress",
          "type": "address"
        }
      ],
      "name": "VoterRegistered",
      "type": "event"
    },
    {
      "anonymous": false,
      "inputs": [
        {
          "indexed": false,
          "internalType": "enum Voting.WorkflowStatus",
          "name": "previousStatus",
          "type": "uint8"
        },
        {
          "indexed": false,
          "internalType": "enum Voting.WorkflowStatus",
          "name": "newStatus",
          "type": "uint8"
        }
      ],
      "name": "WorkflowStatusChange",
      "type": "event"
    },
    {
      "inputs": [],
      "name": "owner",
      "outputs": [
        {
          "internalType": "address",
          "name": "",
          "type": "address"
        }
      ],
      "stateMutability": "view",
      "type": "function",
      "constant": true
    },
    {
      "inputs": [],
      "name": "renounceOwnership",
      "outputs": [],
      "stateMutability": "nonpayable",
      "type": "function"
    },
    {
      "inputs": [
        {
          "internalType": "address",
          "name": "newOwner",
          "type": "address"
        }
      ],
      "name": "transferOwnership",
      "outputs": [],
      "stateMutability": "nonpayable",
      "type": "function"
    },
    {
      "inputs": [],
      "name": "winningProposalID",
      "outputs": [
        {
          "internalType": "uint256",
          "name": "",
          "type": "uint256"
        }
      ],
      "stateMutability": "view",
      "type": "function",
      "constant": true
    },
    {
      "inputs": [],
      "name": "workflowStatus",
      "outputs": [
        {
          "internalType": "enum Voting.WorkflowStatus",
          "name": "",
          "type": "uint8"
        }
      ],
      "stateMutability": "view",
      "type": "function",
      "constant": true
    },
    {
      "inputs": [
        {
          "internalType": "address",
          "name": "_addr",
          "type": "address"
        }
      ],
      "name": "getVoter",
      "outputs": [
        {
          "components": [
            {
              "internalType": "bool",
              "name": "isRegistered",
              "type": "bool"
            },
            {
              "internalType": "bool",
              "name": "hasVoted",
              "type": "bool"
            },
            {
              "internalType": "uint256",
              "name": "votedProposalId",
              "type": "uint256"
            }
          ],
          "internalType": "struct Voting.Voter",
          "name": "",
          "type": "tuple"
        }
      ],
      "stateMutability": "view",
      "type": "function",
      "constant": true
    },
    {
      "inputs": [
        {
          "internalType": "uint256",
          "name": "_id",
          "type": "uint256"
        }
      ],
      "name": "getOneProposal",
      "outputs": [
        {
          "components": [
            {
              "internalType": "string",
              "name": "description",
              "type": "string"
            },
            {
              "internalType": "uint256",
              "name": "voteCount",
              "type": "uint256"
            }
          ],
          "internalType": "struct Voting.Proposal",
          "name": "",
          "type": "tuple"
        }
      ],
      "stateMutability": "view",
      "type": "function",
      "constant": true
    },
    {
      "inputs": [
        {
          "internalType": "address",
          "name": "_addr",
          "type": "address"
        }
      ],
      "name": "addVoter",
      "outputs": [],
      "stateMutability": "nonpayable",
      "type": "function"
    },
    {
      "inputs": [
        {
          "internalType": "string",
          "name": "_desc",
          "type": "string"
        }
      ],
      "name": "addProposal",
      "outputs": [],
      "stateMutability": "nonpayable",
      "type": "function"
    },
    {
      "inputs": [
        {
          "internalType": "uint256",
          "name": "_id",
          "type": "uint256"
        }
      ],
      "name": "setVote",
      "outputs": [],
      "stateMutability": "nonpayable",
      "type": "function"
    },
    {
      "inputs": [],
      "name": "startProposalsRegistering",
      "outputs": [],
      "stateMutability": "nonpayable",
      "type": "function"
    },
    {
      "inputs": [],
      "name": "endProposalsRegistering",
      "outputs": [],
      "stateMutability": "nonpayable",
      "type": "function"
    },
    {
      "inputs": [],
      "name": "startVotingSession",
      "outputs": [],
      "stateMutability": "nonpayable",
      "type": "function"
    },
    {
      "inputs": [],
      "name": "endVotingSession",
      "outputs": [],
      "stateMutability": "nonpayable",
      "type": "function"
    },
    {
      "inputs": [],
      "name": "tallyVotes",
      "outputs": [],
      "stateMutability": "nonpayable",
      "type": "function"
    }
  ],
  "bytecode": "0x60806040523480156200001157600080fd5b5062000032620000266200003860201b60201c565b6200004060201b60201c565b62000104565b600033905090565b60008060009054906101000a900473ffffffffffffffffffffffffffffffffffffffff169050816000806101000a81548173ffffffffffffffffffffffffffffffffffffffff021916908373ffffffffffffffffffffffffffffffffffffffff1602179055508173ffffffffffffffffffffffffffffffffffffffff168173ffffffffffffffffffffffffffffffffffffffff167f8be0079c531659141344cd1fd0a4f28419497f9722a3daafe3b4186f6b6457e060405160405180910390a35050565b61250980620001146000396000f3fe608060405234801561001057600080fd5b50600436106100f55760003560e01c8063a7bfab1611610097578063d4f50f9811610066578063d4f50f98146101ee578063ee74c6781461021e578063f2fde38b14610228578063f4ab9adf14610244576100f5565b8063a7bfab16146101b2578063bdc01431146101bc578063c7038a4e146101da578063c88af42f146101e4576100f5565b8063715018a6116100d3578063715018a61461013c5780638da5cb5b14610146578063a1edffa214610164578063a2788cce14610182576100f5565b8063230796ae146100fa5780632fdae3c514610116578063378a217814610132575b600080fd5b610114600480360381019061010f9190611499565b610260565b005b610130600480360381019061012b919061152b565b61055b565b005b61013a610826565b005b610144610993565b005b61014e6109a7565b60405161015b91906115b9565b60405180910390f35b61016c6109d0565b604051610179919061164b565b60405180910390f35b61019c60048036038101906101979190611499565b6109e3565b6040516101a99190611742565b60405180910390f35b6101ba610b4a565b005b6101c4610c30565b6040516101d19190611773565b60405180910390f35b6101e2610c36565b005b6101ec610db1565b005b610208600480360381019061020391906117ba565b610e96565b6040516102159190611844565b60405180910390f35b610226610fbe565b005b610242600480360381019061023d91906117ba565b6110a4565b005b61025e600480360381019061025991906117ba565b611127565b005b600460003373ffffffffffffffffffffffffffffffffffffffff1673ffffffffffffffffffffffffffffffffffffffff16815260200190815260200160002060000160009054906101000a900460ff166102ef576040517f08c379a00000000000000000000000000000000000000000000000000000000081526004016102e6906118bc565b60405180910390fd5b60036005811115610303576103026115d4565b5b600260009054906101000a900460ff166005811115610325576103246115d4565b5b14610365576040517f08c379a000000000000000000000000000000000000000000000000000000000815260040161035c9061194e565b60405180910390fd5b60011515600460003373ffffffffffffffffffffffffffffffffffffffff1673ffffffffffffffffffffffffffffffffffffffff16815260200190815260200160002060000160019054906101000a900460ff161515036103fb576040517f08c379a00000000000000000000000000000000000000000000000000000000081526004016103f2906119ba565b60405180910390fd5b6003805490508110610442576040517f08c379a000000000000000000000000000000000000000000000000000000000815260040161043990611a26565b60405180910390fd5b80600460003373ffffffffffffffffffffffffffffffffffffffff1673ffffffffffffffffffffffffffffffffffffffff168152602001908152602001600020600101819055506001600460003373ffffffffffffffffffffffffffffffffffffffff1673ffffffffffffffffffffffffffffffffffffffff16815260200190815260200160002060000160016101000a81548160ff021916908315150217905550600381815481106104f8576104f7611a46565b5b9060005260206000209060020201600101600081548092919061051a90611aa4565b91905055507f4d99b957a2bc29a30ebd96a7be8e68fe50a3c701db28a91436490b7d53870ca43382604051610550929190611aec565b60405180910390a150565b600460003373ffffffffffffffffffffffffffffffffffffffff1673ffffffffffffffffffffffffffffffffffffffff16815260200190815260200160002060000160009054906101000a900460ff166105ea576040517f08c379a00000000000000000000000000000000000000000000000000000000081526004016105e1906118bc565b60405180910390fd5b600160058111156105fe576105fd6115d4565b5b600260009054906101000a900460ff1660058111156106205761061f6115d4565b5b14610660576040517f08c379a000000000000000000000000000000000000000000000000000000000815260040161065790611b61565b60405180910390fd5b6064600380549050106106a8576040517f08c379a000000000000000000000000000000000000000000000000000000000815260040161069f90611bf3565b60405180910390fd5b6040516020016106b790611c39565b6040516020818303038152906040528051906020012082826040516020016106e0929190611c95565b6040516020818303038152906040528051906020012003610736576040517f08c379a000000000000000000000000000000000000000000000000000000000815260040161072d90611d05565b60405180910390fd5b61073e61141a565b82828080601f016020809104026020016040519081016040528093929190818152602001838380828437600081840152601f19601f820116905080830192505050505050508160000181905250600381908060018154018082558091505060019003906000526020600020906002020160009091909190915060008201518160000190816107cc9190611f60565b506020820151816001015550507f92e393e9b54e2f801d3ea4beb0c5e71a21cc34a5d34b77d0fb8a3aa1650dc18f600160038054905061080c9190612032565b6040516108199190611773565b60405180910390a1505050565b61082e6112d0565b60046005811115610842576108416115d4565b5b600260009054906101000a900460ff166005811115610864576108636115d4565b5b146108a4576040517f08c379a000000000000000000000000000000000000000000000000000000000815260040161089b906120d8565b60405180910390fd5b600080600090505b60038054905081101561092257600382815481106108cd576108cc611a46565b5b906000526020600020906002020160010154600382815481106108f3576108f2611a46565b5b906000526020600020906002020160010154111561090f578091505b808061091a90611aa4565b9150506108ac565b50806001819055506005600260006101000a81548160ff021916908360058111156109505761094f6115d4565b5b02179055507f0a97a4ee45751e2abf3e4fc8946939630b11b371ea8ae39ccdc3056e98f5cc3f600460056040516109889291906120f8565b60405180910390a150565b61099b6112d0565b6109a5600061134e565b565b60008060009054906101000a900473ffffffffffffffffffffffffffffffffffffffff16905090565b600260009054906101000a900460ff1681565b6109eb61141a565b600460003373ffffffffffffffffffffffffffffffffffffffff1673ffffffffffffffffffffffffffffffffffffffff16815260200190815260200160002060000160009054906101000a900460ff16610a7a576040517f08c379a0000000000000000000000000000000000000000000000000000000008152600401610a71906118bc565b60405180910390fd5b60038281548110610a8e57610a8d611a46565b5b9060005260206000209060020201604051806040016040529081600082018054610ab790611d83565b80601f0160208091040260200160405190810160405280929190818152602001828054610ae390611d83565b8015610b305780601f10610b0557610100808354040283529160200191610b30565b820191906000526020600020905b815481529060010190602001808311610b1357829003601f168201915b505050505081526020016001820154815250509050919050565b610b526112d0565b60036005811115610b6657610b656115d4565b5b600260009054906101000a900460ff166005811115610b8857610b876115d4565b5b14610bc8576040517f08c379a0000000000000000000000000000000000000000000000000000000008152600401610bbf9061194e565b60405180910390fd5b6004600260006101000a81548160ff02191690836005811115610bee57610bed6115d4565b5b02179055507f0a97a4ee45751e2abf3e4fc8946939630b11b371ea8ae39ccdc3056e98f5cc3f60036004604051610c269291906120f8565b60405180910390a1565b60015481565b610c3e6112d0565b60006005811115610c5257610c516115d4565b5b600260009054906101000a900460ff166005811115610c7457610c736115d4565b5b14610cb4576040517f08c379a0000000000000000000000000000000000000000000000000000000008152600401610cab90612193565b60405180910390fd5b6001600260006101000a81548160ff02191690836005811115610cda57610cd96115d4565b5b0217905550610ce761141a565b6040518060400160405280600781526020017f47454e4553495300000000000000000000000000000000000000000000000000815250816000018190525060038190806001815401808255809150506001900390600052602060002090600202016000909190919091506000820151816000019081610d669190611f60565b506020820151816001015550507f0a97a4ee45751e2abf3e4fc8946939630b11b371ea8ae39ccdc3056e98f5cc3f60006001604051610da69291906120f8565b60405180910390a150565b610db96112d0565b60016005811115610dcd57610dcc6115d4565b5b600260009054906101000a900460ff166005811115610def57610dee6115d4565b5b14610e2f576040517f08c379a0000000000000000000000000000000000000000000000000000000008152600401610e2690612225565b60405180910390fd5b60028060006101000a81548160ff02191690836005811115610e5457610e536115d4565b5b02179055507f0a97a4ee45751e2abf3e4fc8946939630b11b371ea8ae39ccdc3056e98f5cc3f60016002604051610e8c9291906120f8565b60405180910390a1565b610e9e611434565b600460003373ffffffffffffffffffffffffffffffffffffffff1673ffffffffffffffffffffffffffffffffffffffff16815260200190815260200160002060000160009054906101000a900460ff16610f2d576040517f08c379a0000000000000000000000000000000000000000000000000000000008152600401610f24906118bc565b60405180910390fd5b600460008373ffffffffffffffffffffffffffffffffffffffff1673ffffffffffffffffffffffffffffffffffffffff1681526020019081526020016000206040518060600160405290816000820160009054906101000a900460ff161515151581526020016000820160019054906101000a900460ff161515151581526020016001820154815250509050919050565b610fc66112d0565b60026005811115610fda57610fd96115d4565b5b600260009054906101000a900460ff166005811115610ffc57610ffb6115d4565b5b1461103c576040517f08c379a0000000000000000000000000000000000000000000000000000000008152600401611033906122b7565b60405180910390fd5b6003600260006101000a81548160ff02191690836005811115611062576110616115d4565b5b02179055507f0a97a4ee45751e2abf3e4fc8946939630b11b371ea8ae39ccdc3056e98f5cc3f6002600360405161109a9291906120f8565b60405180910390a1565b6110ac6112d0565b600073ffffffffffffffffffffffffffffffffffffffff168173ffffffffffffffffffffffffffffffffffffffff160361111b576040517f08c379a000000000000000000000000000000000000000000000000000000000815260040161111290612349565b60405180910390fd5b6111248161134e565b50565b61112f6112d0565b60006005811115611143576111426115d4565b5b600260009054906101000a900460ff166005811115611165576111646115d4565b5b146111a5576040517f08c379a000000000000000000000000000000000000000000000000000000000815260040161119c906123db565b60405180910390fd5b60011515600460008373ffffffffffffffffffffffffffffffffffffffff1673ffffffffffffffffffffffffffffffffffffffff16815260200190815260200160002060000160009054906101000a900460ff1615150361123b576040517f08c379a000000000000000000000000000000000000000000000000000000000815260040161123290612447565b60405180910390fd5b6001600460008373ffffffffffffffffffffffffffffffffffffffff1673ffffffffffffffffffffffffffffffffffffffff16815260200190815260200160002060000160006101000a81548160ff0219169083151502179055507fb6be2187d059cc2a55fe29e0e503b566e1e0f8c8780096e185429350acffd3dd816040516112c591906115b9565b60405180910390a150565b6112d8611412565b73ffffffffffffffffffffffffffffffffffffffff166112f66109a7565b73ffffffffffffffffffffffffffffffffffffffff161461134c576040517f08c379a0000000000000000000000000000000000000000000000000000000008152600401611343906124b3565b60405180910390fd5b565b60008060009054906101000a900473ffffffffffffffffffffffffffffffffffffffff169050816000806101000a81548173ffffffffffffffffffffffffffffffffffffffff021916908373ffffffffffffffffffffffffffffffffffffffff1602179055508173ffffffffffffffffffffffffffffffffffffffff168173ffffffffffffffffffffffffffffffffffffffff167f8be0079c531659141344cd1fd0a4f28419497f9722a3daafe3b4186f6b6457e060405160405180910390a35050565b600033905090565b604051806040016040528060608152602001600081525090565b6040518060600160405280600015158152602001600015158152602001600081525090565b600080fd5b600080fd5b6000819050919050565b61147681611463565b811461148157600080fd5b50565b6000813590506114938161146d565b92915050565b6000602082840312156114af576114ae611459565b5b60006114bd84828501611484565b91505092915050565b600080fd5b600080fd5b600080fd5b60008083601f8401126114eb576114ea6114c6565b5b8235905067ffffffffffffffff811115611508576115076114cb565b5b602083019150836001820283011115611524576115236114d0565b5b9250929050565b6000806020838503121561154257611541611459565b5b600083013567ffffffffffffffff8111156115605761155f61145e565b5b61156c858286016114d5565b92509250509250929050565b600073ffffffffffffffffffffffffffffffffffffffff82169050919050565b60006115a382611578565b9050919050565b6115b381611598565b82525050565b60006020820190506115ce60008301846115aa565b92915050565b7f4e487b7100000000000000000000000000000000000000000000000000000000600052602160045260246000fd5b60068110611614576116136115d4565b5b50565b600081905061162582611603565b919050565b600061163582611617565b9050919050565b6116458161162a565b82525050565b6000602082019050611660600083018461163c565b92915050565b600081519050919050565b600082825260208201905092915050565b60005b838110156116a0578082015181840152602081019050611685565b60008484015250505050565b6000601f19601f8301169050919050565b60006116c882611666565b6116d28185611671565b93506116e2818560208601611682565b6116eb816116ac565b840191505092915050565b6116ff81611463565b82525050565b6000604083016000830151848203600086015261172282826116bd565b915050602083015161173760208601826116f6565b508091505092915050565b6000602082019050818103600083015261175c8184611705565b905092915050565b61176d81611463565b82525050565b60006020820190506117886000830184611764565b92915050565b61179781611598565b81146117a257600080fd5b50565b6000813590506117b48161178e565b92915050565b6000602082840312156117d0576117cf611459565b5b60006117de848285016117a5565b91505092915050565b60008115159050919050565b6117fc816117e7565b82525050565b60608201600082015161181860008501826117f3565b50602082015161182b60208501826117f3565b50604082015161183e60408501826116f6565b50505050565b60006060820190506118596000830184611802565b92915050565b600082825260208201905092915050565b7f596f75277265206e6f74206120766f7465720000000000000000000000000000600082015250565b60006118a660128361185f565b91506118b182611870565b602082019050919050565b600060208201905081810360008301526118d581611899565b9050919050565b7f566f74696e672073657373696f6e20686176656e74207374617274656420796560008201527f7400000000000000000000000000000000000000000000000000000000000000602082015250565b600061193860218361185f565b9150611943826118dc565b604082019050919050565b600060208201905081810360008301526119678161192b565b9050919050565b7f596f75206861766520616c726561647920766f74656400000000000000000000600082015250565b60006119a460168361185f565b91506119af8261196e565b602082019050919050565b600060208201905081810360008301526119d381611997565b9050919050565b7f50726f706f73616c206e6f7420666f756e640000000000000000000000000000600082015250565b6000611a1060128361185f565b9150611a1b826119da565b602082019050919050565b60006020820190508181036000830152611a3f81611a03565b9050919050565b7f4e487b7100000000000000000000000000000000000000000000000000000000600052603260045260246000fd5b7f4e487b7100000000000000000000000000000000000000000000000000000000600052601160045260246000fd5b6000611aaf82611463565b91507fffffffffffffffffffffffffffffffffffffffffffffffffffffffffffffffff8203611ae157611ae0611a75565b5b600182019050919050565b6000604082019050611b0160008301856115aa565b611b0e6020830184611764565b9392505050565b7f50726f706f73616c7320617265206e6f7420616c6c6f77656420796574000000600082015250565b6000611b4b601d8361185f565b9150611b5682611b15565b602082019050919050565b60006020820190508181036000830152611b7a81611b3e565b9050919050565b7f57652063616e277420616363657074206d6f7265207468616e2031303020707260008201527f6f706f73616c7300000000000000000000000000000000000000000000000000602082015250565b6000611bdd60278361185f565b9150611be882611b81565b604082019050919050565b60006020820190508181036000830152611c0c81611bd0565b9050919050565b50565b6000611c2360008361185f565b9150611c2e82611c13565b600082019050919050565b60006020820190508181036000830152611c5281611c16565b9050919050565b82818337600083830152505050565b6000611c74838561185f565b9350611c81838584611c59565b611c8a836116ac565b840190509392505050565b60006020820190508181036000830152611cb0818486611c68565b90509392505050565b7f596f752063616e27742070726f706f7365206e6f7468696e6700000000000000600082015250565b6000611cef60198361185f565b9150611cfa82611cb9565b602082019050919050565b60006020820190508181036000830152611d1e81611ce2565b9050919050565b7f4e487b7100000000000000000000000000000000000000000000000000000000600052604160045260246000fd5b7f4e487b7100000000000000000000000000000000000000000000000000000000600052602260045260246000fd5b60006002820490506001821680611d9b57607f821691505b602082108103611dae57611dad611d54565b5b50919050565b60008190508160005260206000209050919050565b60006020601f8301049050919050565b600082821b905092915050565b600060088302611e167fffffffffffffffffffffffffffffffffffffffffffffffffffffffffffffffff82611dd9565b611e208683611dd9565b95508019841693508086168417925050509392505050565b6000819050919050565b6000611e5d611e58611e5384611463565b611e38565b611463565b9050919050565b6000819050919050565b611e7783611e42565b611e8b611e8382611e64565b848454611de6565b825550505050565b600090565b611ea0611e93565b611eab818484611e6e565b505050565b5b81811015611ecf57611ec4600082611e98565b600181019050611eb1565b5050565b601f821115611f1457611ee581611db4565b611eee84611dc9565b81016020851015611efd578190505b611f11611f0985611dc9565b830182611eb0565b50505b505050565b600082821c905092915050565b6000611f3760001984600802611f19565b1980831691505092915050565b6000611f508383611f26565b9150826002028217905092915050565b611f6982611666565b67ffffffffffffffff811115611f8257611f81611d25565b5b611f8c8254611d83565b611f97828285611ed3565b600060209050601f831160018114611fca5760008415611fb8578287015190505b611fc28582611f44565b86555061202a565b601f198416611fd886611db4565b60005b8281101561200057848901518255600182019150602085019450602081019050611fdb565b8683101561201d5784890151612019601f891682611f26565b8355505b6001600288020188555050505b505050505050565b600061203d82611463565b915061204883611463565b92508282039050818111156120605761205f611a75565b5b92915050565b7f43757272656e7420737461747573206973206e6f7420766f74696e672073657360008201527f73696f6e20656e64656400000000000000000000000000000000000000000000602082015250565b60006120c2602a8361185f565b91506120cd82612066565b604082019050919050565b600060208201905081810360008301526120f1816120b5565b9050919050565b600060408201905061210d600083018561163c565b61211a602083018461163c565b9392505050565b7f5265676973746572696e672070726f706f73616c732063616e2774206265207360008201527f746172746564206e6f7700000000000000000000000000000000000000000000602082015250565b600061217d602a8361185f565b915061218882612121565b604082019050919050565b600060208201905081810360008301526121ac81612170565b9050919050565b7f5265676973746572696e672070726f706f73616c7320686176656e742073746160008201527f7274656420796574000000000000000000000000000000000000000000000000602082015250565b600061220f60288361185f565b915061221a826121b3565b604082019050919050565b6000602082019050818103600083015261223e81612202565b9050919050565b7f5265676973746572696e672070726f706f73616c73207068617365206973206e60008201527f6f742066696e6973686564000000000000000000000000000000000000000000602082015250565b60006122a1602b8361185f565b91506122ac82612245565b604082019050919050565b600060208201905081810360008301526122d081612294565b9050919050565b7f4f776e61626c653a206e6577206f776e657220697320746865207a65726f206160008201527f6464726573730000000000000000000000000000000000000000000000000000602082015250565b600061233360268361185f565b915061233e826122d7565b604082019050919050565b6000602082019050818103600083015261236281612326565b9050919050565b7f566f7465727320726567697374726174696f6e206973206e6f74206f70656e2060008201527f7965740000000000000000000000000000000000000000000000000000000000602082015250565b60006123c560238361185f565b91506123d082612369565b604082019050919050565b600060208201905081810360008301526123f4816123b8565b9050919050565b7f416c726561647920726567697374657265640000000000000000000000000000600082015250565b600061243160128361185f565b915061243c826123fb565b602082019050919050565b6000602082019050818103600083015261246081612424565b9050919050565b7f4f776e61626c653a2063616c6c6572206973206e6f7420746865206f776e6572600082015250565b600061249d60208361185f565b91506124a882612467565b602082019050919050565b600060208201905081810360008301526124cc81612490565b905091905056fea264697066735822122033a56ce4deb2abb1e917b54e97d8939e5db8deb93169f3ad6ce228e9511a5f0164736f6c63430008110033",
  "immutableReferences": {},
  "source": "// SPDX-License-Identifier: MIT\r\n\r\npragma solidity 0.8.17;\r\n\r\nimport \"../node_modules/@openzeppelin/contracts/access/Ownable.sol\";\r\n\r\n/**\r\n * @title Voting\r\n * @author Cyril Castagnet (modify by Nicolas Milliard)\r\n * @notice Voting system with simple majority. From Project #1 of Alyra\r\n * @dev Add a limit of 100 proposals to addProposal() to remove the Dos Gas Limit security breach\r\n*/\r\n\r\ncontract Voting is Ownable {\r\n\r\n    uint public winningProposalID;\r\n    \r\n    struct Voter {\r\n        bool isRegistered;\r\n        bool hasVoted;\r\n        uint votedProposalId;\r\n    }\r\n\r\n    struct Proposal {\r\n        string description;\r\n        uint voteCount;\r\n    }\r\n\r\n    enum WorkflowStatus {\r\n        RegisteringVoters,\r\n        ProposalsRegistrationStarted,\r\n        ProposalsRegistrationEnded,\r\n        VotingSessionStarted,\r\n        VotingSessionEnded,\r\n        VotesTallied\r\n    }\r\n\r\n    WorkflowStatus public workflowStatus;\r\n    Proposal[] proposalsArray;\r\n    mapping (address => Voter) voters;\r\n\r\n\r\n    event VoterRegistered(address voterAddress); \r\n    event WorkflowStatusChange(WorkflowStatus previousStatus, WorkflowStatus newStatus);\r\n    event ProposalRegistered(uint proposalId);\r\n    event Voted (address voter, uint proposalId);\r\n    \r\n    modifier onlyVoters() {\r\n        require(voters[msg.sender].isRegistered, \"You're not a voter\");\r\n        _;\r\n    }\r\n\r\n    /// @notice Get the details of a voter.\r\n    /// @dev Only a voter can check details of a voter.\r\n    /// @param _addr is the address of the voter we want to check his details.\r\n    /// @return Voter details (isRegistered, hasVoted and votedProposalId).\r\n    function getVoter(address _addr) external onlyVoters view returns (Voter memory) {\r\n        return voters[_addr];\r\n    }\r\n\r\n    /// @notice Get the details of a proposal.\r\n    /// @dev Only a voter can check details of a voter.\r\n    /// @param _id is the id of the proposal we want to check it's details.\r\n    /// @return Proposal details (description and voteCount).\r\n    function getOneProposal(uint _id) external onlyVoters view returns (Proposal memory) {\r\n        return proposalsArray[_id];\r\n    }\r\n    \r\n    /// @notice Administrator add voters to the whitelist. A voter can only be authorized once.\r\n    /// @dev Only the owner of the contract can call this function.\r\n    /// @dev Set isRegistered for the address to true.\r\n    /// @param _addr is the address of the Voter who is added by the owner.\r\n    function addVoter(address _addr) external onlyOwner {\r\n        require(workflowStatus == WorkflowStatus.RegisteringVoters, \"Voters registration is not open yet\");\r\n        require(voters[_addr].isRegistered != true, \"Already registered\");\r\n    \r\n        voters[_addr].isRegistered = true;\r\n        emit VoterRegistered(_addr);\r\n    }\r\n\r\n    /// @notice Voters can register their proposal.\r\n    /// @dev Only voters can call this function.\r\n    /// @dev The maximum number of proposals is 100 to avoid DoS Gas limit attack on tallyVotes()\r\n    /// @param _desc is necessary to check if the proposal is not empty.\r\n    function addProposal(string calldata _desc) external onlyVoters {\r\n        require(workflowStatus == WorkflowStatus.ProposalsRegistrationStarted, \"Proposals are not allowed yet\");\r\n        require(proposalsArray.length < 100, \"We can't accept more than 100 proposals\");\r\n        require(keccak256(abi.encode(_desc)) != keccak256(abi.encode(\"\")), \"You can't propose nothing\");\r\n\r\n        Proposal memory proposal;\r\n        proposal.description = _desc;\r\n        proposalsArray.push(proposal);\r\n        emit ProposalRegistered(proposalsArray.length-1);\r\n    }\r\n\r\n    /// @notice Voters can vote for their favorite proposal. A voter can only vote once.\r\n    /// @dev Only voters can call this function. Voter's vote is registered (votedProposalId).\r\n    /// @dev voteCount of the _id is increments by one.\r\n    /// @param _id is the id of the proposal selected by the Voter.\r\n    function setVote(uint _id) external onlyVoters {\r\n        require(workflowStatus == WorkflowStatus.VotingSessionStarted, \"Voting session havent started yet\");\r\n        require(voters[msg.sender].hasVoted != true, \"You have already voted\");\r\n        require(_id < proposalsArray.length, \"Proposal not found\");\r\n\r\n        voters[msg.sender].votedProposalId = _id;\r\n        voters[msg.sender].hasVoted = true;\r\n        proposalsArray[_id].voteCount++;\r\n\r\n        emit Voted(msg.sender, _id);\r\n    }\r\n\r\n    /// @notice Administrator starts proposals registration session.\r\n    /// @dev Only the owner of the contract can call this function.\r\n    /// @dev The first proposal is called GENESIS\r\n    function startProposalsRegistering() external onlyOwner {\r\n        require(workflowStatus == WorkflowStatus.RegisteringVoters, \"Registering proposals can't be started now\");\r\n        workflowStatus = WorkflowStatus.ProposalsRegistrationStarted;\r\n        \r\n        Proposal memory proposal;\r\n        proposal.description = \"GENESIS\";\r\n        proposalsArray.push(proposal);\r\n        \r\n        emit WorkflowStatusChange(WorkflowStatus.RegisteringVoters, WorkflowStatus.ProposalsRegistrationStarted);\r\n    }\r\n\r\n    /// @notice Administrator ends proposals registration session.\r\n    /// @dev Only the owner of the contract can call this function.\r\n    function endProposalsRegistering() external onlyOwner {\r\n        require(workflowStatus == WorkflowStatus.ProposalsRegistrationStarted, \"Registering proposals havent started yet\");\r\n        workflowStatus = WorkflowStatus.ProposalsRegistrationEnded;\r\n        emit WorkflowStatusChange(WorkflowStatus.ProposalsRegistrationStarted, WorkflowStatus.ProposalsRegistrationEnded);\r\n    }\r\n\r\n    /// @notice Administrator starts voting session.\r\n    /// @dev Only the owner of the contract can call this function.\r\n    function startVotingSession() external onlyOwner {\r\n        require(workflowStatus == WorkflowStatus.ProposalsRegistrationEnded, \"Registering proposals phase is not finished\");\r\n        workflowStatus = WorkflowStatus.VotingSessionStarted;\r\n        emit WorkflowStatusChange(WorkflowStatus.ProposalsRegistrationEnded, WorkflowStatus.VotingSessionStarted);\r\n    }\r\n\r\n    /// @notice Administrator ends voting session.\r\n    /// @dev Only the owner of the contract can call this function.\r\n    function endVotingSession() external onlyOwner {\r\n        require(workflowStatus == WorkflowStatus.VotingSessionStarted, 'Voting session havent started yet');\r\n        workflowStatus = WorkflowStatus.VotingSessionEnded;\r\n        emit WorkflowStatusChange(WorkflowStatus.VotingSessionStarted, WorkflowStatus.VotingSessionEnded);\r\n    }\r\n\r\n    /// @notice Administrator tally votes.\r\n    /// @dev Only the owner of the contract can call this function.\r\n    /// @dev Set winningProposalId. If there is an equality, the first proposal with the highest voteCount is selected.\r\n   function tallyVotes() external onlyOwner {\r\n       require(workflowStatus == WorkflowStatus.VotingSessionEnded, \"Current status is not voting session ended\");\r\n       uint _winningProposalId;\r\n        for (uint256 p = 0; p < proposalsArray.length; p++) {\r\n            if (proposalsArray[p].voteCount > proposalsArray[_winningProposalId].voteCount) {\r\n                _winningProposalId = p;\r\n            }\r\n        }\r\n       winningProposalID = _winningProposalId;\r\n       \r\n       workflowStatus = WorkflowStatus.VotesTallied;\r\n       emit WorkflowStatusChange(WorkflowStatus.VotingSessionEnded, WorkflowStatus.VotesTallied);\r\n    }\r\n}",
  "sourcePath": "C:\\Users\\Nico\\Documents\\Projects\\Solidity\\Alyra\\rendus\\03_projet\\truffle\\contracts\\Voting.sol",
  "compiler": {
    "name": "solc",
    "version": "0.8.17+commit.8df45f5f.Emscripten.clang"
  },
  "schemaVersion": "3.4.10",
  "updatedAt": "2022-11-21T12:12:41.320Z",
  "networkType": "ethereum",
  "devdoc": {
    "author": "Cyril Castagnet (modify by Nicolas Milliard)",
    "details": "Add a limit of 100 proposals to addProposal() to remove the Dos Gas Limit security breach",
    "kind": "dev",
    "methods": {
      "addProposal(string)": {
        "details": "Only voters can call this function.The maximum number of proposals is 100 to avoid DoS Gas limit attack on tallyVotes()",
        "params": {
          "_desc": "is necessary to check if the proposal is not empty."
        }
      },
      "addVoter(address)": {
        "details": "Only the owner of the contract can call this function.Set isRegistered for the address to true.",
        "params": {
          "_addr": "is the address of the Voter who is added by the owner."
        }
      },
      "endProposalsRegistering()": {
        "details": "Only the owner of the contract can call this function."
      },
      "endVotingSession()": {
        "details": "Only the owner of the contract can call this function."
      },
      "getOneProposal(uint256)": {
        "details": "Only a voter can check details of a voter.",
        "params": {
          "_id": "is the id of the proposal we want to check it's details."
        },
        "returns": {
          "_0": "Proposal details (description and voteCount)."
        }
      },
      "getVoter(address)": {
        "details": "Only a voter can check details of a voter.",
        "params": {
          "_addr": "is the address of the voter we want to check his details."
        },
        "returns": {
          "_0": "Voter details (isRegistered, hasVoted and votedProposalId)."
        }
      },
      "owner()": {
        "details": "Returns the address of the current owner."
      },
      "renounceOwnership()": {
        "details": "Leaves the contract without owner. It will not be possible to call `onlyOwner` functions anymore. Can only be called by the current owner. NOTE: Renouncing ownership will leave the contract without an owner, thereby removing any functionality that is only available to the owner."
      },
      "setVote(uint256)": {
        "details": "Only voters can call this function. Voter's vote is registered (votedProposalId).voteCount of the _id is increments by one.",
        "params": {
          "_id": "is the id of the proposal selected by the Voter."
        }
      },
      "startProposalsRegistering()": {
        "details": "Only the owner of the contract can call this function.The first proposal is called GENESIS"
      },
      "startVotingSession()": {
        "details": "Only the owner of the contract can call this function."
      },
      "tallyVotes()": {
        "details": "Only the owner of the contract can call this function.Set winningProposalId. If there is an equality, the first proposal with the highest voteCount is selected."
      },
      "transferOwnership(address)": {
        "details": "Transfers ownership of the contract to a new account (`newOwner`). Can only be called by the current owner."
      }
    },
    "title": "Voting",
    "version": 1
  },
  "userdoc": {
    "kind": "user",
    "methods": {
      "addProposal(string)": {
        "notice": "Voters can register their proposal."
      },
      "addVoter(address)": {
        "notice": "Administrator add voters to the whitelist. A voter can only be authorized once."
      },
      "endProposalsRegistering()": {
        "notice": "Administrator ends proposals registration session."
      },
      "endVotingSession()": {
        "notice": "Administrator ends voting session."
      },
      "getOneProposal(uint256)": {
        "notice": "Get the details of a proposal."
      },
      "getVoter(address)": {
        "notice": "Get the details of a voter."
      },
      "setVote(uint256)": {
        "notice": "Voters can vote for their favorite proposal. A voter can only vote once."
      },
      "startProposalsRegistering()": {
        "notice": "Administrator starts proposals registration session."
      },
      "startVotingSession()": {
        "notice": "Administrator starts voting session."
      },
      "tallyVotes()": {
        "notice": "Administrator tally votes."
      }
    },
    "notice": "Voting system with simple majority. From Project #1 of Alyra",
    "version": 1
  }
}